:100000000C942A000C940A0A0C94370A0C94640A83
:100010000C9447000C9447000C9447000C94470044
:100020000C9447000C9447000C9447000C94BE06B7
:100030000C9447000C9447000C9447000C94470024
:100040000C9447000C9447000C9447000C94470014
:100050000C94470011241FBECFE5D8E0DEBFCDBF12
:1000600010E0A0E6B0E0E8E8F5E302C005900D92EC
:10007000AA36B107D9F710E0AAE6B0E001C01D9298
:10008000AC37B107E1F70E94741A0C94C21A0C94B1
:100090000000EF92FF920F931F937B018C0120E0F1
:1000A00030E040E05FE40E94490388238CF0C801FF
:1000B000B70120E030E040E05FE40E94C1010E940F
:1000C000A9039B01AC01205030404040504806C07D
:1000D000C801B7010E94A9039B01AC01B901CA0183
:1000E0001F910F91FF90EF900895A0E0B0E0EBE733
:1000F000F0E00C948B1ADC012B01FA019C919230F8
:1001000008F439C1EB018881823008F433C194309E
:1001100069F4843009F02FC111969C91119789815F
:10012000981709F428C1A0E6B0E025C1843009F48D
:1001300021C18230A9F4923009F01DC19A01AD01AC
:1001400088E0EA010990AE01E90109929E0181501F
:10015000C1F7E201898111969C918923818308C1AD
:10016000923009F407C112962D903C901397EB0141
:100170008A819B811496AD90BD90CD90DC901797AD
:10018000EC80FD800E811F819101281B390BB90184
:1001900037FF04C066277727621B730B6032710537
:1001A0000CF061C0121613066CF537014801062EDB
:1001B00004C096948794779467940A94D2F721E0C8
:1001C00030E040E050E004C0220F331F441F551FB1
:1001D0006A95D2F721503040404050402E213F21B7
:1001E00040235123211531054105510521F021E01E
:1001F00030E040E050E079018A01E628F72808293C
:1002000019293CC0232BD1F1260E371E350146019A
:10021000062E04C096948794779467940A94D2F734
:1002200021E030E040E050E004C0220F331F441FC3
:10023000551F6A95D2F721503040404050402A2146
:100240003B214C215D21211531054105510521F04E
:1002500021E030E040E050E059016A01A628B728CB
:10026000C828D9280BC0821593052CF01C01AA249C
:10027000BB24650103C0EE24FF24870111969C91E5
:10028000D20111968C91981709F445C0992339F041
:10029000A80197012A193B094C095D0906C0A6016E
:1002A00095012E193F09400B510B57FD08C01182D3
:1002B0003382228224833583468357831DC081E0A5
:1002C00081833382228288279927DC01821B930B4A
:1002D000A40BB50B84839583A683B7830DC0220F2F
:1002E000331F441F551F24833583468357838281E0
:1002F000938101979383828324813581468157813D
:10030000DA01C9010197A109B1098F5F9F4FAF4F72
:10031000BF4328F30BC0918333822282EA0CFB1C7B
:100320000C1D1D1DE482F5820683178383E0808304
:10033000248135814681578157FF1AC0C901AA27F8
:1003400097FDA095BA2F81709070A070B0705695EF
:10035000479537952795822B932BA42BB52B848318
:100360009583A683B7838281938101969383828349
:10037000DF0101C0D201CD01CDB7DEB7E2E10C94BF
:10038000A71AA0E2B0E0E7ECF1E00C94971A6983B9
:100390007A838B839C832D833E834F835887E9E048
:1003A000EE2EF12CEC0EFD1ECE010196B7010E943F
:1003B000D2048E010F5E1F4FCE010596B8010E9438
:1003C000D2048A8991E089278A8BC701B801AE01DE
:1003D000475E5F4F0E9475000E94FD03A096E6E015
:1003E0000C94B31AA0E2B0E0E8EFF1E00C94971A95
:1003F00069837A838B839C832D833E834F835887C5
:10040000F9E0EF2EF12CEC0EFD1ECE010196B701A6
:100410000E94D2048E010F5E1F4FCE010596B801D7
:100420000E94D204C701B801AE01475E5F4F0E942F
:1004300075000E94FD03A096E6E00C94B31AA0E2BA
:10044000B0E0E5E2F2E00C948B1A69837A838B8347
:100450009C832D833E834F835887CE010196BE0136
:10046000675F7F4F0E94D204CE010596BE016F5E8A
:100470007F4F0E94D2049985923088F0898982301A
:10048000C8F0943019F4823051F404C0843029F457
:10049000923081F480E690E0C6C0923049F420E0CA
:1004A0009A858A89981321E02A87CE010996BBC0D4
:1004B000823049F420E09A858A89981321E02A8BBA
:1004C000CE014196B0C02D843E844F8458886D88FB
:1004D0007E888F88988CEE24FF248701AA24BB2471
:1004E000650140E050E060E070E0E0E0F0E0C10174
:1004F00081709070892BE9F0E60CF71C081D191D1E
:100500009A01AB012A0D3B1D4C1D5D1D80E090E062
:10051000A0E0B0E0E614F7040805190520F481E036
:1005200090E0A0E0B0E0BA01A901480F591F6A1F8E
:100530007B1FAA0CBB1CCC1CDD1C97FE08C081E0F5
:1005400090E0A0E0B0E0A82AB92ACA2ADB2A3196B6
:10055000E032F10549F0660C771C881C991C569412
:10056000479437942794C3CFFA85EA892B893C892D
:100570008B859C85280F391F2E5F3F4F17C0CA01FE
:1005800081709070892B61F016950795F794E79428
:1005900080E090E0A0E0B0E8E82AF92A0A2B1B2BC3
:1005A00076956795579547952F5F3F4F77FDE7CF36
:1005B0000CC0440F551F661F771F17FD4160EE0CDE
:1005C000FF1C001F111F21503040403090E05907A0
:1005D00090E0690790E4790760F32B8F3C8FDB0193
:1005E000CA018F779070A070B07080349105A1051A
:1005F000B10561F447FD0AC0E114F10401051105DC
:1006000029F0405C5F4F6F4F7F4F40781A8EFE1786
:1006100011F081E08A8F4D8F5E8F6F8F78A383E01A
:10062000898FCE0149960E94FD03A096E2E10C94C9
:10063000A71AA8E1B0E0EFE1F3E00C94971A698300
:100640007A838B839C832D833E834F83588789E0F5
:10065000E82EF12CEC0EFD1ECE010196B7010E9492
:10066000D2048E010F5E1F4FCE010596B8010E9485
:10067000D2048985823040F08989823028F0C70110
:10068000B8010E944A0501C08FEF6896E6E00C941D
:10069000B31AA8E1B0E0EFE4F3E00C94971A698391
:1006A0007A838B839C832D833E834F83588789E095
:1006B000E82EF12CEC0EFD1ECE010196B7010E9432
:1006C000D2048E010F5E1F4FCE010596B8010E9425
:1006D000D2048985823040F08989823028F0C701B0
:1006E000B8010E944A0501C08FEF6896E6E00C94BD
:1006F000B31AA8E1B0E0EFE7F3E00C94971A69832E
:100700007A838B839C832D833E834F83588789E034
:10071000E82EF12CEC0EFD1ECE010196B7010E94D1
:10072000D2048E010F5E1F4FCE010596B8010E94C4
:10073000D2048985823040F08989823028F0C7014F
:10074000B8010E944A0501C081E06896E6E00C9479
:10075000B31AACE0B0E0EFEAF3E00C949B1A6983C3
:100760007A838B839C83CE010196BE016B5F7F4FA2
:100770000E94D2048D81823061F1823050F1843048
:1007800021F48E81882351F12EC02F81388537FDC9
:1007900020C06E812F3131051CF06623F9F023C093
:1007A0008EE190E0821B930B29853A854B855C8511
:1007B00004C056954795379527958A95D2F76623B5
:1007C000B1F050954095309521953F4F4F4F5F4F79
:1007D0000EC020E030E040E050E009C02FEF3FEFD6
:1007E0004FEF5FE704C020E030E040E050E8B9019F
:1007F000CA012C96E2E00C94B71ADF92EF92FF92B6
:100800000F931F93FC01E480F58006811781D1804E
:100810008081823048F480E090E0A0E1B0E0E82AF6
:10082000F92A0A2B1B2BA5C0843009F49FC0823003
:1008300021F4EE24FF24870105C0E114F104010531
:10084000110519F4E0E0F0E096C0628173819FEF3A
:10085000623879070CF05BC022E83FEF261B370BAC
:100860002A3131052CF020E030E040E050E02AC091
:10087000B801A701022E04C0769567955795479554
:100880000A94D2F781E090E0A0E0B0E004C0880FC5
:10089000991FAA1FBB1F2A95D2F70197A109B10979
:1008A0008E219F21A023B1230097A105B10521F03E
:1008B00081E090E0A0E0B0E09A01AB01282B392B59
:1008C0004A2B5B2BDA01C9018F779070A070B07052
:1008D00080349105A105B10539F427FF09C0205CDA
:1008E0003F4F4F4F5F4F04C0215C3F4F4F4F5F4F13
:1008F000E0E0F0E02030A0E03A07A0E04A07A0E402
:100900005A0710F0E1E0F0E079018A0127C0603871
:10091000710564F5FB01E158FF4FD801C7018F77DE
:100920009070A070B07080349105A105B10539F4C4
:10093000E7FE0DC080E490E0A0E0B0E004C08FE3EB
:1009400090E0A0E0B0E0E80EF91E0A1F1B1F17FFA1
:1009500005C016950795F794E794319687E01695AC
:100960000795F794E7948A95D1F705C0EE24FF2404
:100970008701EFEFF0E06E2F679566276795902F60
:100980009F77D794DD24D7948E2F8695492F462BB9
:10099000582F5D29B701CA011F910F91FF90EF9069
:1009A000DF900895FC01DB01408151812281622F9B
:1009B0006F7770E0221F2227221F9381892F880FD3
:1009C000822B282F30E0991F9927991F11969C930D
:1009D000119721153105A9F54115510561057105DD
:1009E00011F482E037C082E89FEF13969C938E93B8
:1009F00012979A01AB0167E0220F331F441F551F66
:100A00006A95D1F783E08C930DC0220F331F441FEA
:100A1000551F12968D919C911397019713969C9355
:100A20008E931297203080E0380780E0480780E4FA
:100A3000580758F314962D933D934D935C93179755
:100A400008952F3F310579F4411551056105710570
:100A500019F484E08C93089564FF03C081E08C93C3
:100A600012C01C9210C02F57304013963C932E9307
:100A7000129783E08C9387E0440F551F661F771F02
:100A80008A95D1F7706414964D935D936D937C9322
:100A9000179708951F93DC01FB019C91923008F495
:100AA00047C08081823008F443C0943051F41196DD
:100AB0001C91843099F58181682F70E0611B710968
:100AC0003FC0843021F0923031F48230B9F181811D
:100AD000882389F12DC011961C9111978230F1F075
:100AE00081811817D9F412962D913C911397828128
:100AF00093818217930794F028173907BCF0149656
:100B00008D919D910D90BC91A02D248135814681C0
:100B10005781281739074A075B0718F4112341F05A
:100B20000AC082179307A407B50740F4112319F0F0
:100B300061E070E005C06FEF7FEF02C060E070E041
:100B4000CB011F910895DF93CF9300D00F92CDB7C3
:100B5000DEB789836A834B83A3E5B0E0E3E5F0E089
:100B600080818F7B8C93A3E5B0E0E3E5F0E08081AA
:100B7000877F8C93E2E5F0E08A81808389810E94FF
:100B8000DC058B81813041F4A9E5B0E0E9E5F0E0D6
:100B9000808181608C930AC08B81882339F4A9E518
:100BA000B0E0E9E5F0E080818E7F8C930F900F90AC
:100BB0000F90CF91DF910895DF93CF930F92CDB730
:100BC000DEB7898389818130B1F4A3E5B0E0E3E544
:100BD000F0E0808181608C93A3E5B0E0E3E5F0E094
:100BE00080818D7F8C93A3E5B0E0E3E5F0E0808128
:100BF0008B7F8C9395C089818230B1F4A3E5B0E0FE
:100C0000E3E5F0E080818E7F8C93A3E5B0E0E3E53F
:100C1000F0E0808182608C93A3E5B0E0E3E5F0E052
:100C200080818B7F8C937CC089818330B1F4A3E574
:100C3000B0E0E3E5F0E0808181608C93A3E5B0E073
:100C4000E3E5F0E0808182608C93A3E5B0E0E3E52A
:100C5000F0E080818B7F8C9363C089818430B1F414
:100C6000A3E5B0E0E3E5F0E080818E7F8C93A3E51F
:100C7000B0E0E3E5F0E080818D7F8C93A3E5B0E008
:100C8000E3E5F0E0808184608C934AC089818530FF
:100C9000B1F4A3E5B0E0E3E5F0E0808181608C93FE
:100CA000A3E5B0E0E3E5F0E080818D7F8C93A3E5E0
:100CB000B0E0E3E5F0E0808184608C9331C089810D
:100CC0008630B1F4A3E5B0E0E3E5F0E080818E7F0B
:100CD0008C93A3E5B0E0E3E5F0E0808182608C9343
:100CE000A3E5B0E0E3E5F0E0808184608C9318C078
:100CF00089818630A9F4A3E5B0E0E3E5F0E08081E6
:100D000081608C93A3E5B0E0E3E5F0E08081826050
:100D10008C93A3E5B0E0E3E5F0E0808184608C9300
:100D20000F90CF91DF910895DF93CF93CDB7DEB7CA
:100D3000A3E5B0E0E3E5F0E080818E7F8C93A3E54E
:100D4000B0E0E3E5F0E080818D7F8C93A3E5B0E037
:100D5000E3E5F0E080818B7F8C93CF91DF91089564
:100D6000DF93CF930F92CDB7DEB78983E2E5F0E052
:100D7000898180830F90CF91DF9108951F920F9208
:100D80000FB60F9211242F933F934F935F936F935E
:100D90007F938F939F93AF93BF93EF93FF93DF93D3
:100DA000CF93CDB7DEB780916E0090916F00019622
:100DB00090936F0080936E0080916A0090916B0019
:100DC000009789F080916E0090916F0028E18A363B
:100DD000920749F4E0916A00F0916B000995109236
:100DE0006F0010926E00CF91DF91FF91EF91BF9154
:100DF000AF919F918F917F916F915F914F913F91B3
:100E00002F910F900FBE0F901F901895DF93CF93E7
:100E1000CDB7DEB7E2E5F0E08081CF91DF910895B4
:100E2000DF93CF93CDB7DEB7A9E5B0E0E9E5F0E019
:100E3000808181608C93CF91DF910895DF93CF9370
:100E4000CDB7DEB7A9E5B0E0E9E5F0E080818E7FBF
:100E50008C93CF91DF910895DF93CF9300D0CDB7DE
:100E6000DEB79A83898389819A8190936B008093FE
:100E70006A000F900F90CF91DF910895DF93CF9389
:100E800000D000D0CDB7DEB789837B836A834C83E3
:100E9000A5E4B0E0E5E4F0E0808188608C93A5E40F
:100EA000B0E0E5E4F0E080818F7B8C93E3E4F0E058
:100EB0008A81808389810E9479078C81813041F405
:100EC000A9E5B0E0E9E5F0E0808180688C930AC094
:100ED0008C81882339F4A9E5B0E0E9E5F0E0808170
:100EE0008F778C930F900F900F900F90CF91DF9191
:100EF0000895DF93CF930F92CDB7DEB789838981B1
:100F00008130B1F4A5E4B0E0E5E4F0E080818160F7
:100F10008C93A5E4B0E0E5E4F0E080818D7F8C93D4
:100F2000A5E4B0E0E5E4F0E080818B7F8C9395C090
:100F300089818230B1F4A5E4B0E0E5E4F0E080819D
:100F40008E7F8C93A5E4B0E0E5E4F0E080818260E0
:100F50008C93A5E4B0E0E5E4F0E080818B7F8C9396
:100F60007CC089818330B1F4A5E4B0E0E5E4F0E031
:100F7000808181608C93A5E4B0E0E5E4F0E08081BD
:100F800082608C93A5E4B0E0E5E4F0E080818B7FA3
:100F90008C9363C089818430B1F4A5E4B0E0E5E4CA
:100FA000F0E080818E7F8C93A5E4B0E0E5E4F0E092
:100FB00080818D7F8C93A5E4B0E0E5E4F0E0808152
:100FC00084608C934AC089818530B1F4A5E4B0E097
:100FD000E5E4F0E0808181608C93A5E4B0E0E5E495
:100FE000F0E080818D7F8C93A5E4B0E0E5E4F0E053
:100FF000808184608C9331C089818630B1F4A5E40E
:10100000B0E0E5E4F0E080818E7F8C93A5E4B0E071
:10101000E5E4F0E0808182608C93A5E4B0E0E5E453
:10102000F0E0808184608C9318C089818630A9F4B7
:10103000A5E4B0E0E5E4F0E0808181608C93A5E474
:10104000B0E0E5E4F0E0808182608C93A5E4B0E05C
:10105000E5E4F0E0808184608C930F90CF91DF9184
:101060000895DF93CF93CDB7DEB7A5E4B0E0E5E414
:10107000F0E080818E7F8C93A5E4B0E0E5E4F0E0C1
:1010800080818D7F8C93A5E4B0E0E5E4F0E0808181
:101090008B7F8C93CF91DF910895DF93CF930F9245
:1010A000CDB7DEB78983E3E4F0E0898180830F90D8
:1010B000CF91DF910895DF93CF93CDB7DEB7E4E40E
:1010C000F0E08081CF91DF910895DF93CF93CDB78A
:1010D000DEB7A9E5B0E0E9E5F0E0808180688C93B7
:1010E000CF91DF910895DF93CF93CDB7DEB7A9E518
:1010F000B0E0E9E5F0E080818F778C93CF91DF91CC
:101100000895DF93CF9300D0CDB7DEB79A8389835C
:1011100089819A8190936D0080936C000F900F905D
:10112000CF91DF910895DF93CF93CDB7DEB7E0E2A3
:10113000F0E082E08083E6E5F0E084E08083E1E2B5
:10114000F0E01082E2E2F0E082E08083CF91DF9174
:101150000895DF93CF93CDB7DEB7E6E5F0E087E003
:101160008083E6E5F0E08081882F90E081709070C8
:101170000097B9F3CF91DF910895DF93CF93CDB767
:10118000DEB7E6E5F0E08DE08083CF91DF91089552
:10119000DF93CF930F92CDB7DEB78983E3E2F0E020
:1011A00089818083E6E5F0E085E08083E6E5F0E094
:1011B0008081882F90E0817090700097B9F30F9034
:1011C000CF91DF910895DF93CF93CDB7DEB7E6E5FA
:1011D000F0E085E18083E6E5F0E08081882F90E013
:1011E000817090700097B9F3E3E2F0E08081CF91D5
:1011F000DF910895DF93CF93CDB7DEB7E6E5F0E05A
:1012000085E08083E6E5F0E08081882F90E08170C2
:1012100090700097B9F3E3E2F0E08081CF91DF9125
:101220000895DF93CF930F92CDB7DEB7E1E2F0E000
:101230008081887F898389810F90CF91DF91089584
:10124000DF93CF93CDB7DEB7AFE5B0E0EFE5F0E0E9
:10125000808180688C93CF91DF910895DF93CF9345
:10126000CDB7DEB7AFE5B0E0EFE5F0E080818F7796
:101270008C93CF91DF910895DF93CF9300D00F929D
:10128000CDB7DEB789838981282F30E03B832A835D
:101290008A819B8181309105C1F02A813B81223076
:1012A000310511F18A819B81009729F5A5E5B0E010
:1012B000E5E5F0E0808182608C93A5E5B0E0E5E5AE
:1012C000F0E0808181608C9316C0A5E5B0E0E5E593
:1012D000F0E0808188608C93A5E5B0E0E5E5F0E082
:1012E000808184608C9307C0A4E5B0E0E4E5F0E081
:1012F000808180648C930F900F900F90CF91DF913D
:101300000895DF93CF9300D00F92CDB7DEB78983D6
:101310008981282F30E03B832A838A819B81813019
:10132000910589F02A813B8122303105A1F08A8123
:101330009B810097B9F4ABE5B0E0EBE5F0E080818C
:1013400080648C930FC0ABE5B0E0EBE5F0E080810A
:1013500080688C9307C0ABE5B0E0EBE5F0E08081FE
:1013600080628C930F900F900F90CF91DF91089532
:10137000DF93CF9300D00F92CDB7DEB789838981F9
:10138000282F30E03B832A838A819B81813091051D
:1013900089F02A813B8122303105A1F08A819B812D
:1013A0000097B9F4ABE5B0E0EBE5F0E080818F7B2E
:1013B0008C930FC0ABE5B0E0EBE5F0E080818F7778
:1013C0008C9307C0ABE5B0E0EBE5F0E080818F7D6A
:1013D0008C930F900F900F90CF91DF910895DF9332
:1013E000CF9300D00F92CDB7DEB789837B836A831A
:1013F0008981882F90E0880F991FFC01E059FF4FE9
:101400008A819B81918380830F900F900F90CF9161
:10141000DF9108951F920F920FB60F9211242F9310
:101420003F934F935F936F937F938F939F93AF936C
:10143000BF93EF93FF93DF93CF93CDB7DEB7E091E8
:101440007000F09171000995CF91DF91FF91EF91BC
:10145000BF91AF919F918F917F916F915F914F91CC
:101460003F912F910F900FBE0F901F9018951F92D4
:101470000F920FB60F9211242F933F934F935F93C8
:101480006F937F938F939F93AF93BF93EF93FF934C
:10149000DF93CF93CDB7DEB7E0917200F091730088
:1014A0000995CF91DF91FF91EF91BF91AF919F91FE
:1014B0008F917F916F915F914F913F912F910F90FD
:1014C0000FBE0F901F9018951F920F920FB60F929C
:1014D00011242F933F934F935F936F937F938F9339
:1014E0009F93AF93BF93EF93FF93DF93CF93CDB7CA
:1014F000DEB7E0917400F09175000995CF91DF910E
:10150000FF91EF91BF91AF919F918F917F916F91DB
:101510005F914F913F912F910F900FBE0F901F90B1
:101520001895DF93CF93CDB7DEB70E949308CF9184
:10153000DF910895DF93CF9300D000D0CDB7DEB711
:101540009A8389836B830E94A9080E9411098830BD
:1015500011F01C8228C089819A8180709770880F51
:10156000892F881F990B9195806A0E94C8080E9454
:101570001109883111F01C8216C089810E94C808A7
:101580000E941109883211F01C820DC08B810E94CB
:10159000C8080E941109883211F01C8204C00E9400
:1015A000BD0881E08C838C810F900F900F900F907D
:1015B000CF91DF910895DF93CF9300D000D00F92A9
:1015C000CDB7DEB79A8389837C836B830E94A90899
:1015D0000E941109883011F01D8244C089819A81CE
:1015E00080709770880F892F881F990B9195806A5A
:1015F0000E94C8080E941109883111F01D8232C072
:1016000089810E94C8080E941109883211F01D8248
:1016100029C00E94A9080E941109803111F01D8281
:1016200021C089819A8180709770880F892F881FC7
:10163000990B9195816A0E94C8080E941109803413
:1016400011F01D820FC00E94FA08EB81FC8180839B
:101650000E941109883511F01D8204C00E94BD0846
:1016600081E08D838D810F900F900F900F900F90E0
:10167000CF91DF910895DF93CF93CDB7DEB7279752
:101680000FB6F894DEBF0FBECDBF89836A834B834C
:101690008B81813009F06FC08981282F30E03F8332
:1016A0002E838E819F818130910549F12E813F816A
:1016B000223031052CF48E819F81009761F0CEC0DD
:1016C0002E813F812230310571F18E819F818330DF
:1016D0009105E9F1C3C0AAE3B0E0EAE3F0E080815C
:1016E000482F8A81282F30E081E090E0022E02C04E
:1016F000880F991F0A94E2F7842B8C93AFC0A7E35D
:10170000B0E0E7E3F0E08081482F8A81282F30E0C5
:1017100081E090E0022E02C0880F991F0A94E2F740
:10172000842B8C939BC0A4E3B0E0E4E3F0E08081E1
:10173000482F8A81282F30E081E090E0022E02C0FD
:10174000880F991F0A94E2F7842B8C9387C0A1E33A
:10175000B0E0E1E3F0E08081482F8A81282F30E07B
:1017600081E090E0022E02C0880F991F0A94E2F7F0
:10177000842B8C9373C08981282F30E03D832C8388
:101780008C819D818130910559F12C813D812230E0
:1017900031052CF48C819D81009769F05FC02C810C
:1017A0003D812230310589F18C819D818330910505
:1017B00009F440C053C0AAE3B0E0EAE3F0E080815E
:1017C000482F8A81282F30E081E090E0022E02C06D
:1017D000880F991F0A94E2F7809584238C933EC06A
:1017E000A7E3B0E0E7E3F0E08081482F8A81282F6B
:1017F00030E081E090E0022E02C0880F991F0A9429
:10180000E2F7809584238C9329C0A4E3B0E0E4E35D
:10181000F0E08081482F8A81282F30E081E090E03D
:10182000022E02C0880F991F0A94E2F78095842344
:101830008C9314C0A1E3B0E0E1E3F0E08081482F95
:101840008A81282F30E081E090E0022E02C0880FCC
:10185000991F0A94E2F7809584238C9327960FB6FC
:10186000F894DEBF0FBECDBFCF91DF910895DF9317
:10187000CF9300D000D0CDB7DEB789836A8389814A
:10188000282F30E03C832B838B819C818130910514
:10189000D1F02B813C81223031052CF48B819C814D
:1018A000009761F01EC02B813C812230310581F010
:1018B0008B819C818330910581F013C0EAE3F0E0D5
:1018C0008A8180830EC0E7E3F0E08A81808309C0CB
:1018D000E4E3F0E08A81808304C0E1E3F0E08A8100
:1018E00080830F900F900F900F90CF91DF9108950C
:1018F000DF93CF93CDB7DEB727970FB6F894DEBF4F
:101900000FBECDBF89836A834B838B81813009F001
:101910006FC08981282F30E03F832E838E819F8185
:101920008130910549F12E813F81223031052CF41F
:101930008E819F81009761F0CEC02E813F81223041
:10194000310571F18E819F8183309105E9F1C3C02A
:10195000ABE3B0E0EBE3F0E08081482F8A81282FF1
:1019600030E081E090E0022E02C0880F991F0A94B7
:10197000E2F7842B8C93AFC0A8E3B0E0E8E3F0E09B
:101980008081482F8A81282F30E081E090E0022E6C
:1019900002C0880F991F0A94E2F7842B8C939BC096
:1019A000A5E3B0E0E5E3F0E08081482F8A81282FAD
:1019B00030E081E090E0022E02C0880F991F0A9467
:1019C000E2F7842B8C9387C0A2E3B0E0E2E3F0E07F
:1019D0008081482F8A81282F30E081E090E0022E1C
:1019E00002C0880F991F0A94E2F7842B8C9373C06E
:1019F0008981282F30E03D832C838C819D8181302B
:101A0000910559F12C813D81223031052CF48C81D6
:101A10009D81009769F05FC02C813D8122303105A6
:101A200089F18C819D818330910509F440C053C0B8
:101A3000ABE3B0E0EBE3F0E08081482F8A81282F10
:101A400030E081E090E0022E02C0880F991F0A94D6
:101A5000E2F7809584238C933EC0A8E3B0E0E8E3EE
:101A6000F0E08081482F8A81282F30E081E090E0EB
:101A7000022E02C0880F991F0A94E2F780958423F2
:101A80008C9329C0A5E3B0E0E5E3F0E08081482F26
:101A90008A81282F30E081E090E0022E02C0880F7A
:101AA000991F0A94E2F7809584238C9314C0A2E3D3
:101AB000B0E0E2E3F0E08081482F8A81282F30E017
:101AC00081E090E0022E02C0880F991F0A94E2F78D
:101AD000809584238C9327960FB6F894DEBF0FBEB3
:101AE000CDBFCF91DF910895DF93CF9300D000D089
:101AF000CDB7DEB789836A838981282F30E03C83A4
:101B00002B838B819C8181309105D1F02B813C818D
:101B1000223031052CF48B819C81009761F01EC02E
:101B20002B813C812230310581F08B819C81833077
:101B3000910581F013C0EBE3F0E08A8180830EC051
:101B4000E8E3F0E08A81808309C0E5E3F0E08A8180
:101B5000808304C0E2E3F0E08A8180830F900F90DD
:101B60000F900F90CF91DF910895DF93CF9300D026
:101B700000D00F92CDB7DEB789836A838981282F81
:101B800030E03D832C834C815D814130510549F12A
:101B90008C819D818230910534F42C813D81211509
:101BA000310561F057C04C815D814230510561F1D2
:101BB0008C819D8183309105D1F14CC0E9E3F0E047
:101BC0008081282F30E08A81882F90E0A90102C00F
:101BD000559547958A95E2F7CA01582F51705B8356
:101BE0003AC0E6E3F0E08081282F30E08A81882F38
:101BF00090E0A90102C0559547958A95E2F7CA0180
:101C0000582F51705B8327C0E3E3F0E08081282FD9
:101C100030E08A81882F90E0A90102C05595479550
:101C20008A95E2F7CA01582F51705B8314C0E0E334
:101C3000F0E08081282F30E08A81882F90E0A90190
:101C400002C0559547958A95E2F7CA01582F517001
:101C50005B8301C01B828B810F900F900F900F90C0
:101C60000F90CF91DF910895DF93CF9300D000D0F4
:101C7000CDB7DEB789838981282F30E03C832B8361
:101C80008B819C8181309105D1F02B813C81223068
:101C900031052CF48B819C81009761F01FC02B8152
:101CA0003C812230310581F08B819C81833091050C
:101CB00081F014C0E9E3F0E090819A8310C0E6E37C
:101CC000F0E020812A830BC0E3E3F0E030813A8327
:101CD00006C0E0E3F0E080818A8301C01A828A8135
:101CE0000F900F900F900F90CF91DF910895DF9399
:101CF000CF9300D000D0CDB7DEB789836A838981C6
:101D0000282F30E03C832B838B819C81813091058F
:101D100049F12B813C81223031052CF48B819C814F
:101D2000009761F05AC02B813C812230310571F15E
:101D30008B819C8183309105E9F14FC0ABE3B0E02A
:101D4000EBE3F0E08081482F8A81282F30E081E0AA
:101D500090E0022E02C0880F991F0A94E2F78427B0
:101D60008C933BC0A8E3B0E0E8E3F0E08081482F2B
:101D70008A81282F30E081E090E0022E02C0880F97
:101D8000991F0A94E2F784278C9327C0A5E3B0E05B
:101D9000E5E3F0E08081482F8A81282F30E081E060
:101DA00090E0022E02C0880F991F0A94E2F7842760
:101DB0008C9313C0A2E3B0E0E2E3F0E08081482F0F
:101DC0008A81282F30E081E090E0022E02C0880F47
:101DD000991F0A94E2F784278C930F900F900F902D
:101DE0000F90CF91DF910895DF93CF93CDB7DEB7FA
:101DF000A7E2B0E0E7E2F0E0808180648C93A7E2A4
:101E0000B0E0E7E2F0E0808180688C93A7E2B0E088
:101E1000E7E2F0E08081807E8C93A6E2B0E0E6E22B
:101E2000F0E08081887F86608C93A6E2B0E0E6E2F5
:101E3000F0E0808180688C93CF91DF910895DF93EB
:101E4000CF93CDB7DEB7A6E2B0E0E6E2F0E0808166
:101E500080648C93E6E2F0E08081882F90E08071CE
:101E600090700097B9F3E4E2F0E080819181CF9126
:101E7000DF910895DF93CF93CDB7DEB780E067E0C1
:101E800041E00E943B0B80E066E041E00E943B0B9A
:101E900080E065E041E00E943B0B80E064E041E0CF
:101EA0000E943B0B81E060E041E00E943B0B81E03F
:101EB00061E041E00E943B0BCF91DF910895DF93F9
:101EC000CF93CDB7DEB781E060E041E00E94780CAF
:101ED000CF91DF910895DF93CF93CDB7DEB781E047
:101EE00061E041E00E94780CCF91DF910895DF938B
:101EF000CF93CDB7DEB781E060E040E00E94780C80
:101F0000CF91DF910895DF93CF93CDB7DEB781E016
:101F100061E040E00E94780CCF91DF910895DF935B
:101F2000CF930F92CDB7DEB789838981843630F5A0
:101F30008981869586958695982F917080E067E0D7
:101F4000492F0E94780C898186958695982F9170EB
:101F500080E066E0492F0E94780C89818695982F51
:101F6000917080E065E0492F0E94780C8981982F5C
:101F7000917080E064E0492F0E94780C0F90CF911F
:101F8000DF910895DF93CF93CDB7DEB7A1970FB65A
:101F9000F894DEBF0FBECDBF89A389A19AE0692F57
:101FA0000E947F1A892F88A389A19AE0692F0E9435
:101FB0007F1A8F8F0E94770F0E94830F1E8E1D8EB7
:101FC000F7C00E945F0F8F8D0E948F0F80E090E01E
:101FD000A0E8BFE3898F9A8FAB8FBC8F698D7A8D14
:101FE0008B8D9C8D20E030E04AE755E40E941F0273
:101FF000DC01CB018D8B9E8BAF8BB88F6D897E8979
:102000008F89988D20E030E040E85FE30E947903FB
:1020100088232CF481E090E09C8B8B8B3FC06D89F2
:102020007E898F89988D20E03FEF4FE757E40E942B
:10203000190318164CF5698D7A8D8B8D9C8D20E0D7
:1020400030E040E251E40E941F02DC01CB01BC0100
:10205000CD010E944900DC01CB019C8B8B8B0FC012
:1020600080E991E09A8B898B89899A890197F1F7A8
:102070009A8B898B8B899C8901979C8B8B8B8B8905
:102080009C89009769F714C06D897E898F89988D26
:102090000E944900DC01CB019C8B8B8B8B899C8936
:1020A000988B8F878F8598890197F1F7988B8F8709
:1020B0000E94770F0E946B0F88A10E948F0F80E013
:1020C00090E0A0E8BFE38B879C87AD87BE876B85D8
:1020D0007C858D859E8520E030E04AE755E40E94AE
:1020E0001F02DC01CB018F839887A987BA876F8194
:1020F000788589859A8520E030E040E85FE30E949A
:10210000790388232CF481E090E09E838D833FC087
:102110006F81788589859A8520E03FEF4FE757E406
:102120000E94190318164CF56B857C858D859E855C
:1021300020E030E040E251E40E941F02DC01CB01CC
:10214000BC01CD010E944900DC01CB019E838D833F
:102150000FC080E991E09C838B838B819C810197E8
:10216000F1F79C838B838D819E8101979E838D8364
:102170008D819E81009769F714C06F81788589856C
:102180009A850E944900DC01CB019E838D838D815D
:102190009E819A83898389819A810197F1F79A8335
:1021A00089830E94830F8D8D9E8D01969E8F8D8FCA
:1021B0008D8D9E8D8431910508F403CFA1960FB6C5
:1021C000F894DEBF0FBECDBFCF91DF910895DF93AE
:1021D000CF93CDB7DEB780E062E041E00E943B0BD9
:1021E00080E062E040E00E94780C82E063E041E041
:1021F0000E943B0B82E063E040E00E94780CCF91AC
:10220000DF910895DF93CF93CDB7DEB780E062E032
:1022100041E00E94780CCF91DF910895DF93CF9336
:10222000CDB7DEB780E062E040E00E94780CCF914D
:10223000DF910895DF93CF93CDB7DEB782E063E0FF
:1022400041E00E94780CCF91DF910895DF93CF9306
:10225000CDB7DEB782E063E040E00E94780CCF911A
:10226000DF910895DF93CF93CDB7DEB782E063E0CF
:1022700041E00E943B0B82E00E944111CF91DF912F
:102280000895DF93CF9300D00F92CDB7DEB7898347
:102290008981282F30E03B832A838A819B810097A4
:1022A00041F02A813B812130310529F40E941A1125
:1022B00002C00E9426110F900F900F90CF91DF91D6
:1022C0000895DF93CF9300D00F92CDB7DEB7898307
:1022D0008981282F30E03B832A838A819B8181304A
:1022E000910579F02A813B812230310581F08A8184
:1022F0009B81009789F482E062E041E00E943B0B01
:102300000BC082E067E041E00E943B0B05C083E028
:1023100066E041E00E943B0B0F900F900F90CF9131
:10232000DF910895DF93CF9300D00F92CDB7DEB742
:1023300089838981282F30E03B832A838A819B818E
:102340008130910579F02A813B812230310581F07D
:102350008A819B81009789F482E062E041E00E94DB
:10236000780C0BC082E067E041E00E94780C05C069
:1023700083E066E041E00E94780C0F900F900F9090
:10238000CF91DF910895DF93CF9300D00F92CDB717
:10239000DEB789838981282F30E03B832A838A81B5
:1023A0009B818130910579F02A813B812230310572
:1023B00081F08A819B81009789F482E062E040E0AD
:1023C0000E94780C0BC082E067E040E00E94780C2D
:1023D00005C083E066E040E00E94780C0F900F900B
:1023E0000F90CF91DF910895DF93CF9300D00F929C
:1023F000CDB7DEB789838981282F30E03B832A83DC
:102400008A819B818130910571F02A813B81223044
:10241000310571F08A819B81009771F482E062E05E
:102420000E94770E09C082E067E00E94770E04C028
:1024300083E066E00E94770E0F900F900F90CF918F
:10244000DF910895DF93CF93CDB7DEB76C970FB6CA
:10245000F894DEBF0FBECDBF81E00E94921180E0F4
:1024600090E0AAE7B4E4898F9A8FAB8FBC8F698D17
:102470007A8D8B8D9C8D20E030E04AE755E40E94F8
:102480001F02DC01CB018D8B9E8BAF8BB88F6D89CA
:102490007E898F89988D20E030E040E85FE30E94DC
:1024A000790388232CF481E090E09C8B8B8B3FC0D8
:1024B0006D897E898F89988D20E03FEF4FE757E443
:1024C0000E94190318164CF5698D7A8D8B8D9C8DA1
:1024D00020E030E040E251E40E941F02DC01CB0129
:1024E000BC01CD010E944900DC01CB019C8B8B8B90
:1024F0000FC080E991E09A8B898B89899A8901972D
:10250000F1F79A8B898B8B899C8901979C8B8B8B9C
:102510008B899C89009769F714C06D897E898F89A2
:10252000988D0E944900DC01CB019C8B8B8B8B89A1
:102530009C89988B8F878F8598890197F1F7988B65
:102540008F8781E00E94C31180E090E0AAE7B4E4A5
:102550008B879C87AD87BE876B857C858D859E85A7
:1025600020E030E04AE755E40E941F02DC01CB0185
:102570008F839887A987BA876F81788589859A859F
:1025800020E030E040E85FE30E94790388232CF4E8
:1025900081E090E09E838D833FC06F81788589853F
:1025A0009A8520E03FEF4FE757E40E941903181681
:1025B0004CF56B857C858D859E8520E030E040E282
:1025C00051E40E941F02DC01CB01BC01CD010E943D
:1025D0004900DC01CB019E838D830FC080E991E02F
:1025E0009C838B838B819C810197F1F79C838B83E8
:1025F0008D819E8101979E838D838D819E81009721
:1026000069F72ACF6F81788589859A850E9449006C
:10261000DC01CB019E838D838D819E819A8389838A
:1026200089819A810197F1F79A83898315CFDF9386
:10263000CF93CDB7DEB76D970FB6F894DEBF0FBE60
:10264000CDBF8D8F81E061E040E00E94780C8D8DE0
:10265000982F907F80E0692F0E94740D81E063E0E5
:1026600041E00E94780C80E090E0A0EAB0E4898F1D
:102670009A8FAB8FBC8F698D7A8D8B8D9C8D20E06E
:1026800030E04AE755E40E941F02DC01CB018D8B4C
:102690009E8BAF8BB88F6D897E898F89988D20E056
:1026A00030E040E85FE30E94790388232CF481E066
:1026B00090E09C8B8B8B3FC06D897E898F89988D34
:1026C00020E03FEF4FE757E40E94190318164CF53E
:1026D000698D7A8D8B8D9C8D20E030E040E251E455
:1026E0000E941F02DC01CB01BC01CD010E94490008
:1026F000DC01CB019C8B8B8B0FC080E991E09A8B26
:10270000898B89899A890197F1F79A8B898B8B89B3
:102710009C8901979C8B8B8B8B899C89009769F78F
:1027200014C06D897E898F89988D0E944900DC01D3
:10273000CB019C8B8B8B8B899C89988B8F878F850A
:1027400098890197F1F7988B8F8781E063E040E0EB
:102750000E94780C8D8D982F9295907F80E0692F44
:102760000E94740D81E063E041E00E94780C80E0FB
:1027700090E0A0EAB0E48B879C87AD87BE876B852D
:102780007C858D859E8520E030E04AE755E40E94F7
:102790001F02DC01CB018F839887A987BA876F81DD
:1027A000788589859A8520E030E040E85FE30E94E3
:1027B000790388232CF481E090E09E838D833FC0D1
:1027C0006F81788589859A8520E03FEF4FE757E450
:1027D0000E94190318164CF56B857C858D859E85A6
:1027E00020E030E040E251E40E941F02DC01CB0116
:1027F000BC01CD010E944900DC01CB019E838D8389
:102800000FC080E991E09C838B838B819C81019731
:10281000F1F79C838B838D819E8101979E838D83AD
:102820008D819E81009769F714C06F8178858985B5
:102830009A850E944900DC01CB019E838D838D81A6
:102840009E819A83898389819A810197F1F79A837E
:10285000898381E063E040E00E94780C6D960FB6BA
:10286000F894DEBF0FBECDBFCF91DF910895DF9307
:10287000CF93CDB7DEB76D970FB6F894DEBF0FBE1E
:10288000CDBF8D8F81E061E041E00E94780C8D8D9D
:10289000982F907F80E0692F0E94740D81E063E0A3
:1028A00041E00E94780C80E090E0A0EAB0E4898FDB
:1028B0009A8FAB8FBC8F698D7A8D8B8D9C8D20E02C
:1028C00030E04AE755E40E941F02DC01CB018D8B0A
:1028D0009E8BAF8BB88F6D897E898F89988D20E014
:1028E00030E040E85FE30E94790388232CF481E024
:1028F00090E09C8B8B8B3FC06D897E898F89988DF2
:1029000020E03FEF4FE757E40E94190318164CF5FB
:10291000698D7A8D8B8D9C8D20E030E040E251E412
:102920000E941F02DC01CB01BC01CD010E944900C5
:10293000DC01CB019C8B8B8B0FC080E991E09A8BE3
:10294000898B89899A890197F1F79A8B898B8B8971
:102950009C8901979C8B8B8B8B899C89009769F74D
:1029600014C06D897E898F89988D0E944900DC0191
:10297000CB019C8B8B8B8B899C89988B8F878F85C8
:1029800098890197F1F7988B8F8781E063E040E0A9
:102990000E94780C8D8D982F9295907F80E0692F02
:1029A0000E94740D81E063E041E00E94780C80E0B9
:1029B00090E0A0EAB0E48B879C87AD87BE876B85EB
:1029C0007C858D859E8520E030E04AE755E40E94B5
:1029D0001F02DC01CB018F839887A987BA876F819B
:1029E000788589859A8520E030E040E85FE30E94A1
:1029F000790388232CF481E090E09E838D833FC08F
:102A00006F81788589859A8520E03FEF4FE757E40D
:102A10000E94190318164CF56B857C858D859E8563
:102A200020E030E040E251E40E941F02DC01CB01D3
:102A3000BC01CD010E944900DC01CB019E838D8346
:102A40000FC080E991E09C838B838B819C810197EF
:102A5000F1F79C838B838D819E8101979E838D836B
:102A60008D819E81009769F714C06F817885898573
:102A70009A850E944900DC01CB019E838D838D8164
:102A80009E819A83898389819A810197F1F79A833C
:102A9000898381E063E040E00E94780C6D960FB678
:102AA000F894DEBF0FBECDBFCF91DF910895DF93C5
:102AB000CF93CDB7DEB72E970FB6F894DEBF0FBE1B
:102AC000CDBF81E061E041E00E943B0B81E062E02C
:102AD00041E00E943B0B81E063E041E00E943B0B40
:102AE00081E062E040E00E94780C80E060EF0E94AC
:102AF000370C80E090E0AAE7B4E48B879C87AD8731
:102B0000BE876B857C858D859E8520E030E04AE719
:102B100055E40E941F02DC01CB018F839887A987AF
:102B2000BA876F81788589859A8520E030E040E812
:102B30005FE30E94790388232CF481E090E09E8378
:102B40008D833FC06F81788589859A8520E03FEF2E
:102B50004FE757E40E94190318164CF56B857C85E6
:102B60008D859E8520E030E040E251E40E941F0206
:102B7000DC01CB01BC01CD010E944900DC01CB018D
:102B80009E838D830FC080E991E09C838B838B8132
:102B90009C810197F1F79C838B838D819E810197A6
:102BA0009E838D838D819E81009769F714C06F810C
:102BB000788589859A850E944900DC01CB019E8336
:102BC0008D838D819E819A83898389819A810197E2
:102BD000F1F79A83898383E30E94171382E30E94AB
:102BE000171388E20E94171381E00E9417138CE0EC
:102BF0000E9417132E960FB6F894DEBF0FBECDBFFE
:102C0000CF91DF910895DF93CF9300D00F92CDB78E
:102C1000DEB79B838A8319820EC08981282F30E01A
:102C20008A819B81FC01E20FF31F80810E9437148F
:102C300089818F5F89838981282F30E08A819B81F8
:102C4000FC01E20FF31F8081882339F70F900F906A
:102C50000F90CF91DF910895DF93CF93CDB7DEB77B
:102C600081E00E941713CF91DF910895DF93CF93F6
:102C7000CDB7DEB7CF91DF910895DF93CF9300D02A
:102C800000D0CDB7DEB71A8219820E941F0F9C8335
:102C90008B838B819C8199232CF48B819C8103965F
:102CA0009C838B838B819C81959587959595879542
:102CB0009A83898389819A810F900F900F900F904A
:102CC000CF91DF910895DF93CF93CDB7DEB780E04A
:102CD00062E041E00E943B0B82E00E947216CF91BD
:102CE000DF910895DF93CF9300D00F92CDB7DEB779
:102CF00089838981282F30E03B832A838A819B81C5
:102D0000009741F02A813B812130310529F40E944E
:102D1000021102C00E940E110F900F900F90CF91E0
:102D2000DF910895DF93CF9300D00F92CDB7DEB738
:102D300089838981282F30E03B832A838A819B8184
:102D40008130910579F02A813B812230310581F073
:102D50008A819B81009789F483E062E040E00E94D1
:102D60003B0B0BC083E063E040E00E943B0B05C0DF
:102D700081E062E040E00E943B0B0F900F900F90CB
:102D8000CF91DF910895DF93CF93CDB7DEB7AE97A4
:102D90000FB6F894DEBF0FBECDBF8CA71BA68CA5C7
:102DA000282F30E03EA72DA78DA59EA58130910547
:102DB00009F494C02DA53EA52230310509F417C1B0
:102DC0008DA59EA5009709F099C183E062E00E945D
:102DD000B50D813009F092C180E090E0A0EFB1E440
:102DE0008FA398A7A9A7BAA76FA178A589A59AA527
:102DF00020E030E04AE755E40E941F02DC01CB01ED
:102E00008BA39CA3ADA3BEA36BA17CA18DA19EA10E
:102E100020E030E040E85FE30E94790388232CF44F
:102E200081E090E09AA389A33FC06BA17CA18DA112
:102E30009EA120E03FEF4FE757E40E9419031816C8
:102E40004CF56FA178A589A59AA520E030E040E275
:102E500051E40E941F02DC01CB01BC01CD010E94A4
:102E60004900DC01CB019AA389A30FC080E991E05E
:102E700098A38F8F8F8D98A10197F1F798A38F8FCB
:102E800089A19AA101979AA389A389A19AA10097E0
:102E900069F714C06BA17CA18DA19EA10E9449007D
:102EA000DC01CB019AA389A389A19AA19E8F8D8F62
:102EB0008D8D9E8D0197F1F79E8F8D8F83E062E05F
:102EC0000E94B50D813009F019C181E08BA783E024
:102ED00062E00E94B50D8130D1F310C183E063E060
:102EE0000E94B50D813009F009C180E090E0A0EFAB
:102EF000B1E4898F9A8FAB8FBC8F698D7A8D8B8D62
:102F00009C8D20E030E04AE755E40E941F02DC017E
:102F1000CB018D8B9E8BAF8BB88F6D897E898F890E
:102F2000988D20E030E040E85FE30E947903882339
:102F30002CF481E090E09C8B8B8B3FC06D897E8967
:102F40008F89988D20E03FEF4FE757E40E941903E7
:102F500018164CF5698D7A8D8B8D9C8D20E030E0B4
:102F600040E251E40E941F02DC01CB01BC01CD0113
:102F70000E944900DC01CB019C8B8B8B0FC080E948
:102F800091E09A8B898B89899A890197F1F79A8BBD
:102F9000898B8B899C8901979C8B8B8B8B899C89D6
:102FA000009769F714C06D897E898F89988D0E947A
:102FB0004900DC01CB019C8B8B8B8B899C89988B86
:102FC0008F878F8598890197F1F7988B8F8783E09A
:102FD00063E00E94B50D813009F090C081E08BA7BD
:102FE00083E063E00E94B50D8130D1F387C081E0BA
:102FF00063E00E94B50D813009F080C080E090E070
:10300000A0EFB1E48B879C87AD87BE876B857C85FD
:103010008D859E8520E030E04AE755E40E941F023E
:10302000DC01CB018F839887A987BA876F81788568
:1030300089859A8520E030E040E85FE30E947903CB
:1030400088232CF481E090E09E838D833FC06F81C4
:10305000788589859A8520E03FEF4FE757E40E9405
:10306000190318164CF56B857C858D859E8520E0AF
:1030700030E040E251E40E941F02DC01CB01BC01C0
:10308000CD010E944900DC01CB019E838D830FC0DE
:1030900080E991E09C838B838B819C810197F1F780
:1030A0009C838B838D819E8101979E838D838D81EF
:1030B0009E81009769F714C06F81788589859A850C
:1030C0000E944900DC01CB019E838D838D819E810E
:1030D0009A83898389819A810197F1F79A838983F9
:1030E00081E063E00E94B50D813041F481E08BA75F
:1030F00081E062E00E94B50D8130D1F38BA5AE96E0
:103100000FB6F894DEBF0FBECDBFCF91DF9108950B
:10311000DF93CF93CDB7DEB70E943A0F0E94F40E33
:103120000E94910A0E9432110E94631681E00E945F
:1031300061110E94200980E060E041E00E94A30547
:1031400085E59AE10E942C0780E00E943C0980E01E
:103150000E9481092FEB38E180E0B9010E94EF095C
:1031600081E00E943C0981E00E94810925E639E165
:1031700081E0B9010E94EF09CF91DF910895DF93BB
:10318000CF93CDB7DEB72E970FB6F894DEBF0FBE44
:10319000CDBF81E080937600109277008091680027
:1031A0008B5F80936800809168008C3418F08BE40A
:1031B00080936800809168000E94C20F209168008F
:1031C00080E090E0622F0E949A0A80E090E0A8ECF4
:1031D000B2E48B879C87AD87BE876B857C858D85A8
:1031E0009E8520E030E04AE755E40E941F02DC01A2
:1031F000CB018F839887A987BA876F817885898566
:103200009A8520E030E040E85FE30E94790388235C
:103210002CF481E090E09E838D833FC06F817885A0
:1032200089859A8520E03FEF4FE757E40E94190314
:1032300018164CF56B857C858D859E8520E030E0E9
:1032400040E251E40E941F02DC01CB01BC01CD0130
:103250000E944900DC01CB019E838D830FC080E971
:1032600091E09C838B838B819C810197F1F79C83F8
:103270008B838D819E8101979E838D838D819E811D
:10328000009769F714C06F81788589859A850E94B7
:103290004900DC01CB019E838D838D819E819A83C1
:1032A000898389819A810197F1F79A8389831092A2
:1032B000760081E0809377002E960FB6F894DEBFFB
:1032C0000FBECDBFCF91DF910895DF93CF93CDB7E0
:1032D000DEB72E970FB6F894DEBF0FBECDBF81E0EC
:1032E00080937600109277008091680085508093DB
:1032F000680080916800833218F483E2809368004C
:10330000809168000E94C20F2091680080E090E0E8
:10331000622F0E949A0A80E090E0A8ECB2E48B87CA
:103320009C87AD87BE876B857C858D859E8520E0DB
:1033300030E04AE755E40E941F02DC01CB018F8395
:103340009887A987BA876F81788589859A8520E0D3
:1033500030E040E85FE30E94790388232CF481E0A9
:1033600090E09E838D833FC06F81788589859A85A3
:1033700020E03FEF4FE757E40E94190318164CF581
:103380006B857C858D859E8520E030E040E251E4B0
:103390000E941F02DC01CB01BC01CD010E9449004B
:1033A000DC01CB019E838D830FC080E991E09C837B
:1033B0008B838B819C810197F1F79C838B838D811B
:1033C0009E8101979E838D838D819E81009769F7F1
:1033D00014C06F81788589859A850E944900DC0137
:1033E000CB019E838D838D819E819A838983898180
:1033F0009A810197F1F79A8389831092760081E090
:10340000809377002E960FB6F894DEBF0FBECDBF27
:10341000CF91DF910895DF93CF93CDB7DEB70E94B0
:103420003D16CF91DF910895DF93CF93CDB7DEB7EF
:1034300081E0809378000E943D1680937B0081E0BC
:103440000E94DC0590917B0080916800981768F4D9
:1034500081E00E94721680E00E94411181E00E948A
:10346000F41181E0809379001DC090917B008091E0
:103470006800891760F480E00E94721681E00E9463
:10348000411181E00E949211109279000BC080E0FE
:103490000E94721680E00E94411181E00E94C311D7
:1034A00010927900CF91DF910895DF93CF93CDB73C
:1034B000DEB790917B0080917A00981721F080917F
:1034C0007700813021F080917800813031F40E94C2
:1034D0003D160E94C20F1092780080917B0080936D
:1034E0007A00CF91DF910895DF93CF93CDB7DEB708
:1034F0000E9488180E940B1A0E94141AFBCF991B75
:1035000079E004C0991F961708F0961B881F7A95DA
:10351000C9F7809508952F923F924F925F926F92D4
:103520007F928F929F92AF92BF92CF92DF92EF9253
:10353000FF920F931F93CF93DF93CDB7DEB7CA1BD4
:10354000DB0B0FB6F894DEBF0FBECDBF09942A88FF
:10355000398848885F846E847D848C849B84AA84A7
:10356000B984C884DF80EE80FD800C811B81AA8134
:10357000B981CE0FD11D0FB6F894DEBF0FBECDBFFF
:08358000ED010895F894FFCF5E
:0A3588000000000000000000280011
:00000001FF
